:100000000C9463000C948B000C948B000C948B006C
:100010000C948B000C948B000C948B000C94580463
:100020000C948B000C948B000C948B000C947F042C
:100030000C948B000C948B000C948B000C948B0014
:100040000C940E040C948B000C9490030C946A0393
:100050000C948B000C948B000C948B000C948B00F4
:100060000C948B000C948B0000000008000201002F
:100070000003040700000000000000000000000072
:10008000240027002A000000000023002600290089
:1000900000000000250028002B00040404040404D0
:1000A0000404020202020202030303030303010227
:1000B00004081020408001020408102001020408F6
:1000C0001020E608E00811241FBECFEFD8E0DEBF05
:1000D000CDBF11E0A0E0B1E0E0EEF9E102C0059093
:1000E0000D92AE33B107D9F722E0AEE3B1E001C023
:1000F0001D92A938B207E1F710E0C2E6D0E004C0D3
:100100002197FE010E94D10AC136D107C9F70E948A
:1001100080060C94E30C0C940000CF92DF92EF92D7
:10012000FF920F931F93CF93DF936C017A018B01A2
:10013000C0E0D0E0CE15DF0589F0D8016D918D01CA
:10014000D601ED91FC910190F081E02DC601099559
:10015000892B11F47E0102C02196ECCFC701DF91FB
:10016000CF911F910F91FF90EF90DF90CF90089566
:10017000089580E090E00895FC01538D448D252F73
:1001800030E0842F90E0821B930B541710F0CF9631
:10019000089501970895FC01918D828D981761F063
:1001A000828DDF01A80FB11D5D968C91928D9F5FAE
:1001B0009F73928F90E008958FEF9FEF0895FC0159
:1001C000918D828D981731F0828DE80FF11D858D0C
:1001D00090E008958FEF9FEF0895FC01918D228D9F
:1001E000892F90E0805C9F4F821B91098F73992724
:1001F000089586E591E00E94ED0021E0892B09F445
:1002000020E0822F0895FC01848DDF01A80FB11D2D
:10021000A35ABF4F2C91848D90E001968F7399273C
:10022000848FA689B7892C93A089B1898C91806429
:100230008C93938D848D981306C00288F389E02DEA
:1002400080818F7D80830895EF92FF920F931F939B
:10025000CF93DF93EC0181E0888F9B8D8C8D981379
:1002600005C0E889F989808185FD24C0F62E0B8DB3
:1002700010E00F5F1F4F0F731127E02E8C8DE812D7
:100280000CC00FB607FCFACFE889F989808185FF99
:10029000F5CFCE010E940301F1CF8B8DFE01E80F57
:1002A000F11DE35AFF4FF0820B8FEA89FB898081B1
:1002B000806207C0EE89FF896083E889F9898081BF
:1002C0008064808381E090E0DF91CF911F910F9156
:1002D000FF90EF900895CF93DF93EC01888D8823F2
:1002E000C9F0EA89FB89808185FD05C0A889B989A3
:1002F0008C9186FD0FC00FB607FCF5CF808185FF7E
:10030000F2CFA889B9898C9185FFEDCFCE010E94EB
:100310000301E7CFDF91CF91089580E090E0892B32
:1003200029F00E94F90081110C94000008953FB754
:10033000F8948091460190914701A0914801B091B5
:10034000490126B5A89B05C02F3F19F00196A11DB4
:10035000B11D3FBFBA2FA92F982F8827820F911D5B
:10036000A11DB11DBC01CD0142E0660F771F881FA2
:10037000991F4A95D1F708958F929F92AF92BF929D
:10038000CF92DF92EF92FF926B017C010E94970166
:100390004B015C01C114D104E104F104F1F00E94AD
:1003A0009701DC01CB0188199909AA09BB09883E8C
:1003B0009340A105B10570F321E0C21AD108E1080C
:1003C000F10888EE880E83E0981EA11CB11CC114B0
:1003D000D104E104F10419F7DDCFFF90EF90DF9035
:1003E000CF90BF90AF909F908F900895FC01808137
:1003F000823061F018F4813031F00895833049F093
:10040000843049F008956093B30008956093B40078
:10041000089567BD089568BD08950F931F9366E41E
:1004200070E080E090E00E94BC01E0917D02F091DC
:100430007E02908180917702892B8083E0917902FE
:10044000F0917A0290818091770280958923808350
:100450008BE090E00197F1F7E0917902F0917A0258
:10046000908180917702892B808383E290E00197CD
:10047000F1F7E0917902F0917A0290818091770210
:10048000809589238083E0917D02F0917E029081A6
:1004900080917702809589238083E0917B02F0919F
:1004A0007C02908180917802892309F073C00E94B8
:1004B000970120917F0230918002890120E030E095
:1004C0000855194E2F4F3F4FDC01CB01800F911F74
:1004D000A21FB31F8093810290938202A093830294
:1004E000B0938402E0917B02F0917C029081809134
:1004F0007802892381F40E94970100918102109172
:100500008202209183023091840206171707280780
:10051000390740F73FC00E94970120917F02309138
:100520008002DC01CB01820F931FA11DB11D8093BE
:10053000810290938202A0938302B0938402E0919F
:100540007B02F0917C02908180917802892381F076
:100550000E949701009181021091820220918302F2
:1005600030918402061717072807390740F712C091
:100570000E94970120917F0230918002255031091D
:100580004091810250918202241B350BC901860FD4
:10059000971F02C080E090E069E370E00E94BD0A0E
:1005A000CB011F910F910895FC018081823049F0A9
:1005B00018F4813079F00895833031F0843039F0C7
:1005C000089524E031E008C027E035E005C026E0CA
:1005D00030E002C023E032E06230A9F0643029F15B
:1005E0006130B9F581E090E0AC0101C0440F2A957B
:1005F000EAF7409501C0880F3A95EAF790916002BA
:10060000892B842322C081E090E0AC0101C0440F1B
:100610003A95EAF7342F309540916002342301C0B7
:10062000880F2A95EAF7832B10C041E050E0CA01F9
:1006300001C0880F3A95EAF701C0440F2A95EAF7FE
:10064000842B8095909160028923809360020C94A2
:1006500061050895EF92FF920F931F93CF93DF935D
:10066000EC017B018A0188819981009729F02A8118
:100670003B8124173507F8F4B8016F5F7F4F0E9464
:10068000040C009759F0998388831B830A832C817B
:100690003D81232B81F4FC0110820DC0888199815A
:1006A000009711F00E946C0B198218821D821C8227
:1006B0001B821A8207C01D830C83B7018881998130
:1006C0000E94DC0CCE01DF91CF911F910F91FF9022
:1006D000EF9008951F920F920FB60F9211242F934F
:1006E0003F934F935F936F937F938F939F93AF93BA
:1006F000BF93EF93FF9386E591E00E940301FF9182
:10070000EF91BF91AF919F918F917F916F915F9189
:100710004F913F912F910F900FBE0F901F90189502
:100720001F920F920FB60F9211242F938F939F93C6
:10073000EF93FF93E0916601F09167018081E09172
:100740006C01F0916D0182FD12C0908180916F016A
:100750008F5F8F7320917001821751F0E0916F01CC
:10076000F0E0EA5AFE4F958F80936F0101C08081BF
:10077000FF91EF919F918F912F910F900FBE0F904E
:100780001F90189590E0FC01E859FF4F3491FC014F
:10079000E255FF4F2491FC01E656FF4FE491EE2312
:1007A00009F43BC0332339F1333091F038F4313060
:1007B000A9F0323001F584B58F7D12C0373091F049
:1007C0003830A1F03430B9F4809180008F7D03C0BF
:1007D000809180008F77809380000DC084B58F77E3
:1007E00084BD09C08091B0008F7703C08091B000B4
:1007F0008F7D8093B000F0E0EE0FFF1FE057FF4FBA
:10080000A591B4918FB7F894EC91611103C0209534
:100810002E2301C02E2B2C938FBF08951F920F9271
:100820000FB60F9211242F933F938F939F93AF9303
:10083000BF938091520190915301A0915401B091C6
:1008400055013091450123E0230F2D3720F4019607
:10085000A11DB11D05C026E8230F0296A11DB11DE3
:10086000209345018093520190935301A09354012A
:10087000B09355018091460190914701A0914801A4
:10088000B09149010196A11DB11D8093460190933D
:100890004701A0934801B0934901BF91AF919F9147
:1008A0008F913F912F910F900FBE0F901F90189531
:1008B0001F920F920FB60F9211242F933F934F93D5
:1008C0005F936F937F938F939F93AF93BF93EF93B8
:1008D000FF93E0914301F09144010995FF91EF915D
:1008E000BF91AF919F918F917F916F915F914F9148
:1008F0003F912F910F900FBE0F901F9018951F9250
:100900000F920FB60F9211242F933F934F935F9343
:100910006F937F938F939F93AF93BF93EF93FF93C7
:100920008091420187FF05C01092850010928400DB
:100930001BC020914201022E000C330B80915F02FC
:1009400090E02817390784F480914201082E000CAA
:10095000990BFC01EE0FFF1F8E0F9F1FFC01E55C42
:10096000FD4F808186FD15C0809142018F5F80938D
:10097000420120914201022E000C330B80915F0254
:1009800090E028173907C4F4809142018C3064F15B
:1009900013C080914201082E000C990BFC01EE0F50
:1009A000FF1F8E0F9F1FFC01E55CFD4F808160E003
:1009B0008F730E94C203D8CF8091840090918500EC
:1009C000049680349C4918F480E49CE905C0809129
:1009D000840090918500049690938900809388000C
:1009E0008FEF809342013BC02091840030918500BD
:1009F00080914201082E000C990BFC01EE0FFF1FA5
:100A00008E0F9F1FFC01E55CFD4F81819281820F5B
:100A1000931F909389008093880080914201082E53
:100A2000000C990BFC01EE0FFF1F8E0F9F1FFC01A6
:100A3000E55CFD4F808186FF12C080914201082E47
:100A4000000C990BFC01EE0FFF1F8E0F9F1FFC0186
:100A5000E55CFD4F808161E08F730E94C203FF91CE
:100A6000EF91BF91AF919F918F917F916F915F9126
:100A70004F913F912F910F900FBE0F901F9018959F
:100A80000E94CE0C90E0FC01E255FF4F2491FC0146
:100A9000E656FF4F8491882399F090E0880F991FC4
:100AA000FC01E458FF4FA591B491FC01E057FF4FC2
:100AB000859194918FB7F894EC91E22BEC938FBFD2
:100AC0000895CF93DF9360E08CE00E94C20360E062
:100AD00088E00E94C203C7E0D0E060E084E00E94AA
:100AE000C2038091600290E00C2E02C0959587951C
:100AF0000A94E2F780FF02C061E001C060E088E094
:100B00000E94C20361E084E00E94C203219728F79B
:100B100061E08CE0DF91CF910C94C2038CE00E94E5
:100B2000420587E00E94420588E00E94420584E079
:100B30000E944205109260020E94610560E087E019
:100B40000C94C203CF92DF92EF92FF92DC01A032AD
:100B500082E0B8070CF03EC0B7FD06C0A53BB1056A
:100B60002CF0A4EBB0E002C0A0E0B0E080916902FC
:100B700028E830E06901C81AD10887FDD394CC0C6D
:100B8000DD1CCC0CDD1C0D2C000CEE08FF08809148
:100B90006A0228E532E0281B310987FD3395220FD0
:100BA000331F220F331FA901330F660B770B9A01F6
:100BB000AB012C193D094E095F090E94630A24EB21
:100BC00030E040E050E00E94390AC20ED31EE41E1D
:100BD000F51ED601909168029C3098F580916902CB
:100BE00048E850E0481B510987FD5395440F551FB5
:100BF000440F551FA417B5078CF080916A0228E5B1
:100C000032E0281B310987FD3395220F331F220F55
:100C1000331FAD012A173B070CF4A90142505109BB
:100C2000440F551F2FB7F894892F90E0FC01EE0F69
:100C3000FF1F8E0F9F1FFC01E55CFD4F5283418318
:100C40002FBFFF90EF90DF90CF900895CF92DF926B
:100C5000EF92FF920F931F932FB7F894C090520119
:100C6000D0905301E0905401F09055012FBFDC016A
:100C7000CB018C0D9D1DAE1DBF1D4FB7F89400918B
:100C800052011091530120915401309155014FBFF1
:100C90000C151D052E053F0528F080179107A207AA
:100CA000B30758F71F910F91FF90EF90DF90CF900F
:100CB0000895009771F0FC0101900020E9F7319749
:100CC000AF01481B590BBC0182E692E00E942A0347
:100CD00014C08091620290916302009711F00E940B
:100CE0006C0B1092630210926202109267021092D3
:100CF0006602109265021092640282E692E0089504
:100D0000789484B5826084BD84B5816084BD85B5E6
:100D1000826085BD85B5816085BD80916E008160F2
:100D200080936E0010928100809181008260809398
:100D3000810080918100816080938100809180009A
:100D40008160809380008091B10084608093B100C5
:100D50008091B00081608093B00080917A008460BF
:100D600080937A0080917A00826080937A008091EB
:100D70007A00816080937A0080917A008068809305
:100D80007A001092C100109237021092380210922D
:100D9000390210923A021092F5011092F601109267
:100DA000F7011092F80168EB7BE080E090E00E9490
:100DB000260686E591E09093360280933502E09115
:100DC0006601F091670182E08083E0916201F09119
:100DD00063011082E0916401F091650180E18083FC
:100DE00010926E01E0916A01F0916B0186E08083C0
:100DF000E0916801F0916901808180618083E091D8
:100E00006801F0916901808188608083E0916801C8
:100E1000F0916901808180688083E0916801F091A0
:100E2000690180818F7D80832FB7F8948091520172
:100E300090915301A0915401B09155012FBF80931F
:100E4000F5019093F601A093F701B093F80180911A
:100E5000350290913602DC01ED91FC910280F38124
:100E6000E02D41E150E068E171E009956AE070E051
:100E700080E090E00E94260681E080930902809144
:100E800068028C3008F050C08AE00E9442058091D0
:100E90006802E82FF0E09F01220F331FE20FF31FDB
:100EA000E55CFD4F9081907C9A609083109269027E
:100EB00010926A026CE00E94B10ABCE08B9FB00104
:100EC000112440E050E09A01260F371FF901EE0F80
:100ED000FF1F2E0F3F1FF901E55CFD4F908196FD2E
:100EE00016C04F5F5F4F4C30510569F781110FC03D
:100EF0001092800082E08093810010928500109211
:100F00008400B19A80916F00826080936F00E091BD
:100F10006802F0E0CF01880F991FE80FF91FE55C28
:100F2000FD4F8081806480838AE590E00E94A20565
:100F300068EE73E080E090E00E94BC018AE590E0FA
:100F40000E94A2056AE570E080E090E00E94BC018A
:100F50000E940D0290935101809350014E970CF026
:100F6000E3C064E081E792E00E94D40264E08FE68F
:100F700092E00E94D40264E08DE692E00E94D402E6
:100F800064E08BE692E00E94D40284E290E00E944A
:100F9000A20564EF71E080E090E00E94BC010E9435
:100FA0000D028C0190934D0180934C0164EF71E030
:100FB00080E090E00E94BC0180E990E00E94A205E0
:100FC0006CEB72E080E090E00E94BC010E940D0298
:100FD000EC0190934B0180934A0164EF71E080E053
:100FE00090E00E94BC018AE590E00E94A20564E6C0
:100FF00070E080E090E00E94BC010C171D0734F502
:101000008AE291E00E94590662E081E792E00E9444
:10101000D40262E08FE692E00E94D402C0914E01B9
:10102000C85D6C2F81E792E00E94F6016C2F8FE67D
:1010300092E00E94F60161E08DE692E00E94D40207
:1010400061E08BE692E00E94D40228C087E391E041
:10105000C017D10744F50E94590661E081E792E08C
:101060000E94D40261E08FE692E00E94D40262E026
:101070008DE692E00E94D40262E08BE692E00E944C
:10108000D402C0914E01C85D6C2F8DE692E00E94A3
:10109000F6016C2F8BE692E00E94F6016CED75E094
:1010A00080E090E027C00E94590661E081E792E06D
:1010B0000E94D40261E08FE692E00E94D40262E0D6
:1010C0008DE692E00E94D40262E08BE692E00E94FC
:1010D000D402C0914E01C85D6C2F8DE692E00E9453
:1010E000F6016C2F8BE692E00E94F60164EA76E04E
:1010F00080E090E00E94BC018FE291E00E945906DE
:1011000061E081E792E00E94D40261E08FE692E024
:101110000E94D40261E08DE692E00E94D40261E078
:101120008BE692E00E94D4028FE291E00E94590681
:1011300061E081E792E00E94D40261E08FE692E0F4
:101140000E94D40261E08DE692E00E94D40261E048
:101150008BE692E00E94D40210924F0110924E0151
:10116000C0914E01D0914F01C03AD10504F56C2FCA
:1011700081E792E00E94F6016C2F8FE692E00E94D8
:10118000F6016C2F8DE692E00E94F6016C2F8BE643
:1011900092E00E94F60165E070E080E090E00E943D
:1011A000BC012296D0934F01C0934E01D9CF64EF7A
:1011B00071E080E090E00E94BC010E948D01BECEF3
:1011C00080916202909163020C946C0BCF93DF9339
:1011D000109259011092580188EE93E0A0E0B0E01F
:1011E00080935A0190935B01A0935C01B0935D01E1
:1011F0008AE091E0909357018093560185EC90E04E
:10120000909363018093620184EC90E09093650178
:101210008093640180EC90E0909367018093660175
:1012200081EC90E0909369018093680182EC90E0FA
:1012300090936B0180936A0186EC90E090936D012E
:1012400080936C0110926F011092700110927101E5
:10125000109272011092F9011092FA011092FB01A2
:101260001092FC011092FD011092FE011092FF01FC
:1012700010920002109201021092020210920302D8
:1012800010920402109205021092060210920702B8
:101290001092080210926102ECEBF0E0E491E0930E
:1012A0007702EDEBF0E0E491E093780288EA90E0D9
:1012B000FC012491E22FF0E0EE0FFF1FE057FF4FFB
:1012C0002591349130937A0220937902E9EAF0E093
:1012D000E491F0E0EE0FFF1FEA57FF4F25913491A4
:1012E00030937C0220937B02FC018491E82FF0E094
:1012F000EE0FFF1FE458FF4F8591949190937E026B
:1013000080937D0285E093E49093800280937F0236
:1013100081E080937102C4E0C09372020E948E0546
:1013200080916002837F809360020E9461058091BA
:10133000B00083688093B000C093B1001092B300F6
:101340008BE00E94420582E080936F02C09370029E
:101350000E948E05809160028D7E809360020E94C3
:1013600061058091B00083628093B000C093B100AA
:101370001092B40083E00E944205D3E0D0936D0246
:10138000D0936E020E948E05809160028F758093CB
:1013900060020E94610584B5836884BD17BC86E045
:1013A0000E944205C0936B02D0936C020E948E058E
:1013B000809160028E7B809360020E94610584B5FB
:1013C000836284BD18BC85E00E94420580915F0263
:1013D0008C30A0F491E0980F90935F0280936802A4
:1013E00090E0FC01EE0FFF1F8E0F9F1FFC01E55CDC
:1013F000FD4F88EB9BE09283818303C08FEF809346
:1014000068021092630210926202109265021092BA
:101410006402109267021092660240E050E069E2B6
:1014200071E082E692E0DF91CF910C942A03A1E271
:101430001A2EAA1BBB1BFD010DC0AA1FBB1FEE1F4E
:10144000FF1FA217B307E407F50720F0A21BB30B99
:10145000E40BF50B661F771F881F991F1A9469F715
:1014600060957095809590959B01AC01BD01CF0171
:101470000895052E97FB1EF400940E94500A57FD14
:1014800007D00E94170A07FC03D04EF40C94500AB0
:1014900050954095309521953F4F4F4F5F4F0895A0
:1014A00090958095709561957F4F8F4F9F4F0895D0
:1014B0000E94A20AA59F900DB49F900DA49F800D3D
:1014C000911D11240895B7FF0C94580A0E94580AE0
:1014D000821B930B08952F923F924F925F926F92CF
:1014E0007F928F929F92AF92BF92CF92DF92EF92B4
:1014F000FF920F931F93CF93DF93CDB7DEB7CA1B35
:10150000DB0B0FB6F894DEBF0FBECDBF09942A885F
:10151000398848885F846E847D848C849B84AA8407
:10152000B984C884DF80EE80FD800C811B81AA8194
:10153000B981CE0FD11D0FB6F894DEBF0FBECDBF5F
:10154000ED010895A29FB001B39FC001A39F700D4C
:10155000811D1124911DB29F700D811D1124911DBB
:101560000895991B79E004C0991F961708F0961BFF
:10157000881F7A95C9F780950895AA1BBB1B51E176
:1015800007C0AA1FBB1FA617B70710F0A61BB70BF3
:10159000881F991F5A95A9F780959095BC01CD0198
:1015A0000895EE0FFF1F0590F491E02D0994CF935D
:1015B000DF938230910510F482E090E0E0918702A1
:1015C000F091880220E030E0C0E0D0E0309711F1E7
:1015D0004081518148175907C0F04817590761F4F5
:1015E00082819381209719F09B838A832BC09093EB
:1015F00088028093870226C02115310519F0421711
:10160000530718F49A01BE01DF01EF010280F38154
:10161000E02DDCCF2115310509F1281B390B2430D1
:10162000310590F412968D919C9113976115710577
:1016300021F0FB019383828304C0909388028093FE
:101640008702FD01329644C0FD01E20FF31F819332
:101650009193225031092D933C933AC020918502F9
:1016600030918602232B41F4209102013091030135
:101670003093860220938502209100013091010170
:101680002115310541F42DB73EB740910401509129
:101690000501241B350BE0918502F0918602E217CB
:1016A000F307A0F42E1B3F0B2817390778F0AC0185
:1016B0004E5F5F4F2417350748F04E0F5F1F509362
:1016C0008602409385028193919302C0E0E0F0E0AE
:1016D000CF01DF91CF9108950F931F93CF93DF93A5
:1016E000009709F48CC0FC0132971382128200919A
:1016F0008702109188020115110581F42081318142
:10170000820F931F20918502309186022817390796
:1017100079F5F0938602E093850271C0D80140E02C
:1017200050E0AE17BF0750F412962D913C911397DD
:10173000AD012115310509F1D901F3CF9D01DA0180
:101740003383228360817181860F971F82179307ED
:1017500069F4EC0128813981260F371F2E5F3F4F36
:10176000318320838A819B8193838283452B29F453
:10177000F0938802E093870242C01396FC93EE93A5
:101780001297ED01499159919E01240F351FE217DF
:10179000F30771F480819181840F951F0296119651
:1017A0009C938E938281938113969C938E93129730
:1017B000E0E0F0E0D80112968D919C91139700978C
:1017C00019F0F8018C01F6CF8D919C9198012E5F54
:1017D0003F4F820F931F2091850230918602281778
:1017E000390769F4309729F4109288021092870221
:1017F00002C0138212821093860200938502DF9149
:10180000CF911F910F910895A0E0B0E0EAE0FCE0D5
:101810000C946F0AEC01009721F4CB010E94D70AC7
:10182000B8C0FC01E60FF71F9C0122503109E217F6
:10183000F30708F4ACC0D9010D911C91119706175C
:101840001707B0F00530110508F49FC0C8010497D0
:101850008617970708F499C002501109061B170B49
:10186000019311936D937C93CF010E946C0B8DC0FB
:101870005B01A01AB10A4C01800E911EA091870253
:10188000B091880240E050E0E12CF12C109709F46F
:101890004AC0A815B905D1F56D907C9011976301E8
:1018A00082E0C80ED11CCA14DB0480F1A3014A19DE
:1018B0005B096A0182E0C80ED11C1296BC90129797
:1018C0001396AC91B5E0CB16D10440F0B282A3835D
:1018D00051834083D9016D937C930AC00E5F1F4FE3
:1018E000C301800F911FF90191838083EB2DFA2FA3
:1018F000E114F10431F0D7011396FC93EE931297A3
:1019000044C0F0938802E09387023FC08D919C9180
:1019100011974817590708F4AC017D0112960D90F4
:10192000BC91A02DB3CF809185029091860288153D
:101930009905E1F446175707C8F48091000190918A
:101940000101009741F48DB79EB740910401509179
:101950000501841B950BE817F907C8F4F09386027C
:10196000E0938502F901718360830FC0CB010E946F
:10197000D70A7C01009759F0A801BE010E94D30C40
:10198000CE010E946C0BC70104C0CE0102C080E0F2
:1019900090E0CDB7DEB7EEE00C948B0A81E090E0EA
:1019A000F8940C94E30CFB01DC0102C001900D9251
:1019B00041505040D8F70895FB01DC0101900D9291
:1019C0000020E1F7089510E0C2E6D0E004C0FE0177
:1019D0000E94D10A2196C336D107C9F7F894FFCFE8
:1019E0000000890280000000000024018D00BC007E
:1019F0006B01ED00CB00DF00564D4450565F317C4B
:101A0000315F564D4450560D0A004C454654004631
:0E1A10004F525741524400524947485400007B
:00000001FF
